:10000000008000205901000061010000650100002E
:10001000D9010000DD010000250200000000000001
:100020000000000000000000000000006D02000061
:10003000710200000000000075020000FD0A0000CF
:100040008902000000B583B000F036FC304B314A25
:100050001360314A1360314B314A03E01168196073
:10006000043304322F498B42F8D32A4B1A682E4BA3
:100070009A4204D1284B1A682C4B9A4200D0FEE7D2
:10008000234B2B4A13602B4A13602B4B02E00022B8
:100090001A600433294A9342F9D3254B1B6813B9DC
:1000A000244B1B6803B1FEE700F012FC694601A86F
:1000B00000F0C6F9224C234B1C1BA410002504E0C1
:1000C0001F4B53F8253098470135AC42F8DC1E4CE5
:1000D0001E4B1C1BA410002504E01B4B53F82530BD
:1000E00098470135AC42F8DC0099019800F010FD0A
:1000F0000546174C174B1C1BA41004E0013C144B85
:1001000053F824309847002CF8DC284600F034F9E6
:10011000BABADECA00000020D8010020000000208A
:1001200070220000DC010020785634123254769898
:10013000DC01002098030020DC0100209C0300204B
:10014000B4020000B4020000B4020000B4020000D7
:10015000B4020000B402000008B5FFF773FF00BF4F
:1001600000BEFEE71EF0040F0CBFEFF30880EFF3B4
:1001700009807146414A10472DE9F04182B004469A
:100180008846134B5E6B9F6B9D6A1B6B13F0020FCF
:100190000DD00F4BDB6A002B09DA4BF6AB6100F098
:1001A00013FC20B14FF00042094BDA620CE0094821
:1001B00000F002FBCDF800803B463246294620463F
:1001C00000F08AFB00BEFEE702B0BDE8F08100BF90
:1001D00000ED00E03020000000BEFEE71EF0040F3E
:1001E0000CBFEFF30880EFF309807146244A1047F3
:1001F0002DE9F04182B004468846084B5E6B9F6B48
:100200009D6A074800F0D8FACDF800803B46324698
:100210002946204600F060FB00BEFEE700ED00E04E
:10022000402000001EF0040F0CBFEFF30880EFF336
:1002300009807146134A10472DE9F04182B0044607
:100240008846084B5E6B9F6B9D6A074800F0B4FAC6
:10025000CDF800803B4632462946204600F03CFB64
:1002600000BEFEE700ED00E04C20000000BEFEE70F
:1002700000BEFEE700BEFEE7704700007901000007
:0C028000F101000039020000FEE700BFA1
:10028C007022000000000020DC0100207022000021
:10029C000000001000000010DC0100209C03002076
:0802AC0000000010000000102A
:1002C00008B50D4B1B6813B90C4A0B4B1A600A4B4F
:1002D0001A68C31C23F00303134409498B4206D94F
:1002E00000F072FC0C2303604FF0FF3008BD0249A0
:1002F0000B60104608BD00BFE00100209C030020F9
:10030000007C002030B50025132420462946ABBED2
:100310000446204630BD00BF38B5044600F054FC0A
:100320000546FFF7EFFF2860204638BDB0F1FF3FDC
:1003300003D108B5FFF7F0FF08BD704710B50446BC
:100340000B4B186818B1836B0BB900F083FC132CAE
:1003500009D8084B53F83430B3F1FF3F05D00548B6
:1003600000EBC40010BD002010BD002010BD00BF78
:10037000680000206802002000B508B9044D00E0C4
:10038000044D182420462946ABBE0446FEE700BFB4
:1003900026000200230002002DE9F04184B0234F23
:1003A00001970326039600230293012401AD204602
:1003B0002946ABBE80461E4BC3F8008001970396CA
:1003C0000423029320462946ABBE8046194BC3F84E
:1003D0000080019703960823029320462946ABBE6E
:1003E0000446154B1C60B4F1FF3F03D1114B1A6852
:1003F000114B1A60002305E04FF0FF310F4A42F81D
:1004000033100133132BF7DD0C4B094A12681A60C5
:1004100000225A60074909689960DA60064909684C
:1004200019615A6104B0BDE8F08100BFDC1E000014
:1004300038020020E401002064020020680200204D
:100440002DE9F04782B082468946364B00934F2310
:1004500001936D46152420462946ABBE0446002C68
:1004600046D14FF000082F4B83F84F80009D474640
:10047000464638E0F6B900F0E3FC204490F901303C
:10048000002B03DB092C03D1012302E0012300E050
:1004900000233BBBB8F1080F2CDC222C01D0272C09
:1004A00001D101352746204B43F8285008F10108B7
:1004B000012617E02FB1A74214D100262E7037462F
:1004C00010E000F0BDFC204490F90130002B03DB6C
:1004D000092C03D1012302E0012300E000230BB12A
:1004E00000262E70013595F90040002CC2D101E0A4
:1004F0004FF00008B8F1000F06D10A4B00221A7025
:10050000094A136008F10108074B002243F828202C
:10051000CAF80080C9F80030FFF73EFF02B0BDE81E
:10052000F08700BFE80100203C02002030B585B014
:1005300001900291039201AD062420462946ABBEEC
:1005400004462046FFF7F2FE05B030BD70B50E46FA
:100550001546FFF7F3FE30B900F036FB09230360C0
:100560004FF0FF3070BD04462A4631460068FFF761
:10057000DDFFB0F1FF3F03D0281A636803446360D6
:1005800070BD00BFF0B583B00C461546FFF7D6FE30
:1005900030B900F019FB092303604FF0FF304DE044
:1005A0000646022D06D900F00FFB162303604FF01C
:1005B000FF3043E0012D13D14368E4180FD500F05C
:1005C00003FB162303607368002B2CDD002C2DDD4C
:1005D00000F0FAFA8B2303604FF0FF302EE0002585
:1005E000022D0FD1336802AF47F8083D0C2528468D
:1005F0003946ABBE05462846FFF798FEB0F1FF3FEF
:1006000017D004443368009301946F460A252846A6
:100610003946ABBE05462846FFF788FE00280BDBAF
:10062000746020460AE04FF0FF3007E04FF0FF30E3
:1006300004E04FF0FF3001E04FF0FF3003B0F0BDB9
:1006400008B5FFF79FFF08BD30B585B00190029156
:10065000039201AD052420462946ABBE0446204640
:10066000FFF764FE05B030BD70B50E461446FFF7C7
:1006700065FE30B900F0A8FA092303604FF0FF309F
:1006800070BD0546224631460068FFF7DDFF021EB9
:1006900009DBA01A6B6803446B60944205D100200B
:1006A000FFF73AFE70BD4FF0FF3070BD30B583B03C
:1006B00002AD45F8040D022420462946ABBE04468F
:1006C0002046FFF733FE03B030BD00BF38B5044607
:1006D000FFF734FE30B900F077FA092303604FF0DA
:1006E000FF3038BD0546013C012C09D8094B9A68FA
:1006F0001B699A4204D14FF0FF330360002038BDDC
:100700002868FFF7D3FF18B94FF0FF322A6038BDD1
:1007100038BD00BF6802002070B50C46FFF70EFE22
:1007200030B900F051FA092303604FF0FF3070BD7B
:100730000646636843F4005363604FF48063E362EA
:100740000C2528463146ABBE05462846FFF7EEFD90
:10075000B0F1FF3F02D02061002070BD4FF0FF30AC
:1007600070BD00BF38B505460C463C22002120462E
:1007700000F082FB21462846FFF7CEFF38BD00BFC0
:1007800038B5FFF7DBFD28B900F01EFA0923036036
:10079000002038BD0546092420462946ABBE044644
:1007A000012C07D000F010FA0446FFF7ABFD2060E3
:1007B000002038BD012038BD0FB400B583B004ABB4
:1007C00053F8042B01938021064800F04DFD0028CA
:1007D00003DD0146034800F06BF803B05DF804EB5D
:1007E00004B070470803002010B5044600F069FC0F
:1007F0000146204600F05CF80121024800F058F85C
:1008000010BD00BFAC1F000070B505460E46014686
:100810000A48FFF7D1FF002409E014B10848FFF7A8
:10082000CBFF56F824100748FFF7C6FF0134AC424F
:10083000F3DB0548FFF7C0FF70BD00BFE81E0000F6
:10084000001F0000041F00000C1F00002DE9F043F2
:1008500085B004460F46435613BB0425284621465F
:10086000ABBE04461FE03546102E28BF10250023DE
:1008700006E014F9011B04AA1A4402F8101C013303
:10088000AB42F6D304AA1344002203F8102CE94625
:100890004FF0040840464946ABBE8046761B00E058
:1008A0000E46002EDFD1384605B0BDE8F08300BF0C
:1008B00008B5FFF7CBFF08BD08B500F00DF9024BF6
:1008C000024A9A6008BD00BF00ED00E00000000091
:1008D00008B500F0F9F808BDF8B504460D4617460E
:1008E0001E462648FFF768FF21682548FFF764FF8A
:1008F00061682448FFF760FFA1682348FFF75CFFA9
:10090000E1682248FFF758FF21692148FFF754FFAB
:1009100061692048FFF750FFA1691F48FFF74CFFAE
:10092000E1691E48FFF748FF1D48FFF745FF2946CC
:100930001C48FFF741FF1C4CE16A1C48FFF73CFFD5
:10094000216B1B48FFF738FFE16B1A48FFF734FFB4
:1009500015F0800F03D039461748FFF72DFF15F427
:10096000004F03D031461548FFF726FF1448FFF724
:1009700023FF06991348FFF71FFFF8BD141F00005F
:10098000241F0000341F0000441F0000541F0000FB
:10099000641F0000741F0000841F0000941F0000EB
:1009A000A41F0000B01F000000ED00E0C01F000009
:1009B000D01F0000E01F0000F01F0000002000001A
:1009C000102000001820000038B583691B888B4276
:1009D0006FD1044603684568013B302B6BD8DFE8D4
:1009E00003F0421D63635A2C2F2919196A1919192A
:1009F00019193219206A19236A356A6A6A6A6A6A99
:100A00006A6A6A6A6A6A6A6A6A6A6A6A6A6A6A6A46
:100A10006A1919004FF0FF33036045E000230360BB
:100A200042E0002303603FE000232B606B60AB607B
:100A3000EB6039E00023036036E0AB68036033E02D
:100A40000023036030E0002303602DE0BFF34F8FED
:100A50001A49CA6802F4E062194B1343CB60BFF332
:100A60004F8F00BFFDE71749286800F020FB70B9E1
:100A70006B6813B90123236016E0042B02D1022313
:100A8000236011E0082B02D1032323600CE04FF018
:100A9000FF33236008E02B68023B012B02D80023C0
:100AA000036001E0AB680360A3690233A361012026
:100AB00038BD002038BD002038BD00BF00ED00E08B
:100AC0000400FA05DC1E0000014A024B1A60704760
:100AD00000127A0004000020014A024B1A6070479D
:100AE00000127A0004000020034B1860024B1B68C0
:100AF000002BFBD1704700BF88030020034B1B680D
:100B00001BB1024A1368013B136070478803002041
:100B100070B505460E46FFF777FE1F48FFF764FEE7
:100B20001E4800F069FA1E4B1B68DB681822012181
:100B30001C4800F067F91C4C21681C48FFF73CFE7C
:100B400023681B4AA2FB03239B09013BB3F1807F6F
:100B500009D2184A5360C021174B83F82310002391
:100B6000936007231360012D04DD706800F028F8FE
:100B7000064600E0052600242546A6420ADD4FF47D
:100B80007A70FFF7B1FF013529460C48FFF714FED4
:100B90000134F2E7002070BD5C20000070200000EE
:100BA000680000208C20000004000020A820000025
:100BB000D34D621010E000E000ED00E0C020000026
:100BC0000A22002100F00EBB014B1868704700BFDD
:100BD00068000020014900F0A9B800BF79150000A5
:100BE000002310B50446036043608360818143663F
:100BF000C281036143618361194608225C3000F0C1
:100C00003BF9054B6362054BA362054BE362054B61
:100C10002462236310BD00BF291000004B100000A8
:100C200083100000A710000070B568234D1E5D43BF
:100C30000E4605F1740100F027F9044640B1002189
:100C400080E842000C30A06005F1680200F014F961
:100C5000204670BD836910B5044633BB8364C3640A
:100C60000365124B124A1B688262984204BF01233B
:100C7000836100F01FF86060204600F01BF8A06060
:100C8000204600F017F80022E06004216068FFF7BA
:100C9000A7FF01220921A068FFF7A2FF022212216B
:100CA000E068FFF79DFF0123A36110BD2C21000028
:100CB000D50B0000F8B51C4B1E68B369074613B985
:100CC0003046FFF7C7FF4836B4687368013B04D469
:100CD000B4F90C507DB16834F8E733680BB136686D
:100CE000F2E704213846FFF79FFF30600028F6D175
:100CF0000C233B60F8BD4FF6FF73E3810123A38112
:100D000065662560A560656025616561A56108224D
:100D1000294604F15C0000F0AFF86563A563A564A3
:100D2000E5642046F8BD00BF2C2100002DE9F84302
:100D30008046894600F14804002694B1A56867689A
:100D4000013F0CD4AB89012B07D9B5F90E30013323
:100D500003D029464046C84706436835F0E7246873
:100D6000EBE73046BDE8F8832DE9F843089C894657
:100D7000174602FB03F8064618B183690BB9FFF763
:100D800069FF1D4B9C4201D1746808E01B4B9C42DB
:100D900001D1B46803E01A4B9C4208BFF468A389F0
:100DA0001B0703D523690BB1002513E0214630460C
:100DB00000F0DCFA0028F7D0002519E0A36819F844
:100DC0000510013B002BA36007DB23685A1C22603F
:100DD000197001354545F1D10AE0A269934201DB62
:100DE0000A29F2D12246304600F04CFA0130F0D107
:100DF000B5FBF7F0BDE8F883CC200000EC20000044
:100E00000C21000007B5009313460A46014603482B
:100E10000068FFF7A9FF03B05DF804FB680000203D
:100E2000034B1B68186A034B002808BF184670471D
:100E3000680000206C000020D0F8EC007047000033
:100E400008B5034B1868FFF7EBFFD0F8EC0008BDBE
:100E50006800002082B001B901A93AB143B113780A
:100E60000B601278101C18BF012003E0104601E04F
:100E70006FF0010002B0704702440346934202D073
:100E800003F8011BFAE7704770B5CD1C25F0030588
:100E900008350C2D38BF0C25002D064601DBA94274
:100EA00002D90C23336046E000F002FC234B1C689F
:100EB0001A462146A1B10B685B1B0ED40B2B03D93C
:100EC0000B60CC18CD501EE08C420DBF63684B68A0
:100ED0006360136018BF0C4615E00C464968E9E7EB
:100EE000174C23681BB9304600F08EF82060294665
:100EF000304600F089F8431C18D0C41C24F00304C9
:100F0000A0420DD12560304600F0D3FB04F10B0068
:100F1000231D20F00700C31A0ED05A42E25070BDC4
:100F2000211A304600F070F80130EBD10C23336009
:100F3000304600F0BEFB002070BD00BF90030020D3
:100F40008C03002070B50E46054618B183690BB9B5
:100F5000FFF780FEAB69AC6813B92846FFF77AFE4D
:100F6000224B9C4201D16C6808E0214B9C4201D18C
:100F7000AC6803E01F4B9C4208BFEC68A3891B07C9
:100F800001D523693BB92146284600F0EFF910B19D
:100F90004FF0FF3070BD013EA36816F8011F013B02
:100FA000A36091B1002B04DAA269934206DB0A29FF
:100FB00004D023685A1C22601970EDE722462846A7
:100FC00000F060F90130E7D1E2E7002B08DA2246B1
:100FD0000A21284600F056F90130D9D00A2070BD08
:100FE00023680A205A1C2260187070BDCC200000B3
:100FF000EC2000000C210000024B01461868FFF7AE
:10100000A1BF00BF6800002038B5064C002305468C
:1010100008462360FFF754F9431C02D1236803B14B
:101020002B6038BD9403002010B50C46B1F90E10AA
:1010300000F078FE0028ABBF636DA3891B1823F472
:101040008053ACBF6365A38110BD2DE9F0411F46FD
:101050008B89DB0505460C46164605D50223002282
:10106000B1F90E1000F0B2FAA389B4F90E1023F40E
:101070008053A38132463B462846BDE8F04100F04C
:1010800063B910B50C46B1F90E1000F09FFA431C7D
:10109000A38915BF606523F4805343F48053A38173
:1010A00018BFA38110BDB1F90E1000F0CDB910F832
:1010B000012B11F8013B012A28BF9A42F7D0D01A20
:1010C0007047034613F8012B002AFBD1181A013888
:1010D00070472DE9F0478046894692461E460F46E6
:1010E0003D46089815F8014BFFF7A6FE20444278CC
:1010F00002F0080202F0FF030AB12F46F0E72D2CA0
:1011000003D1BD1C7C78012303E02B2C04BF7C7829
:10111000BD1C16B1102E0AD15EE0302C5AD12A78AF
:1011200002F0DF02582A50D16C7810260235002BCD
:1011300014BF4FF000426FF00042B2FBF6FE06FB18
:101140001E2100221046A4F13007092F01D83C4689
:101150000AE0A4F14107192F01D8373C04E0A4F1BB
:101160006107192F13D8573CA64210DD571C0BD02E
:10117000864507D301D1A14203DB00FB06400122D3
:1011800002E070464FF0FF3215F8014BDBE7511CCF
:101190000ED1002B4FF0220314BF4FF000406FF030
:1011A0000040C8F80030BAF1000F07D1BDE8F08761
:1011B00003B14042BAF1000F11D00AB1013D00E085
:1011C0004D46CAF80050BDE8F0873024002EAED15D
:1011D0000826ACE70A26AAE7302CA0D0A7E7BDE88E
:1011E000F0870000084B37B51C68084D236A002BB8
:1011F00008BF2B46009313460A4601462046FFF7D8
:1012000068FF03B030BD00BF680000206C00002004
:1012100030B5141E05469BB0184604DA8B232B60AC
:101220004FF0FF301DE04FF40273ADF80C3014BFE7
:1012300004F1FF332346029305934FF6FF730091A9
:101240000491ADF80E3002461E9B6946284600F018
:10125000D9FA431CBCBF8B232B6014B1009B002226
:101260001A701BB030BD000007B5009313460A4644
:10127000014603480068FFF7CBFF03B05DF804FBAD
:1012800068000020F8B50F461446054618B183697A
:101290000BB9FFF7DFFC224B9C4201D16C6808E0E0
:1012A000204B9C4201D1AC6803E01F4B9C4208BF1D
:1012B000EC68A369A360A3891A0709D523693BB128
:1012C00023682069181A63699842FEB20FDB08E0B0
:1012D0002146284600F04AF80028F1D04FF0FF36AA
:1012E0001BE02146284600F047F90028F6D1A36804
:1012F000013BA36023685A1C22601F7063690130A0
:10130000984204D0A389DB0707D50A2E05D12146D0
:10131000284600F031F90028E0D13046F8BD00BF82
:10132000CC200000EC2000000C21000049B1FF2A75
:1013300085BF8A2303600A704FF0FF3098BF0120F9
:10134000704708467047000038B5074C0546084608
:101350001146002222601A46FFF786F9431C02D18B
:10136000236803B12B6038BD94030020324B70B565
:101370001D6806460C4625B1AB6913B92846FFF730
:1013800069FC2E4B9C4201D16C6808E02C4B9C42BE
:1013900001D1AC6803E02B4B9C4208BFEC68B4F968
:1013A0000C309AB215071DD4D00602D4092232603F
:1013B0003AE0510712D5616B41B104F144039942FF
:1013C00002D0304600F076F900236363A38923F04E
:1013D0002403A3810023636023692360A38943F06E
:1013E0000803A38123694BB9A38903F42073B3F5E0
:1013F000007F03D02146304600F01EF9A28912F08A
:10140000010305D00023A36063695B42A36103E08D
:10141000920758BF6369A36023695BB9B4F90C30C4
:1014200003F0800080B230B143F04003A3814FF05D
:10143000FF3070BD002070BD68000020CC2000008F
:10144000EC2000000C21000038B5064C00230546B6
:1014500008462360FFF73AF9431C02D1236803B121
:101460002B6038BD940300208A892DE9F0410546A0
:1014700010070C4659D44B68002B02DC0B6C002B78
:1014800017DDE66AAEB102F48052002392B22F68F3
:101490002B600AB1606D15E0216A01232846B04730
:1014A000411C0FD12B686BB11D2B01D0162B03D122
:1014B0002F600020BDE8F081A38943F04003A381A1
:1014C000BDE8F081A3895A0705D56368C01A636B2C
:1014D0000BB1236CC01A00230246E66A216A284633
:1014E000B047431CA38906D129681D293AD8214A4F
:1014F000CA40D60736D500226260D904226922602C
:1015000004D5421C01D12B6803B96065616B2F6063
:101510000029CED004F14403994202D0284600F0BD
:10152000C9F800206063BDE8F0810F69002FC0D0CA
:1015300093070E6808BF4B690F6018BF0023C7EB05
:1015400006088B6002E00744C0EB0808B8F1000F02
:10155000AFDD43463A46216AA66A2846B0470028CE
:10156000F1DCA38943F04003A3814FF0FF30BDE8D5
:10157000F08100BF0100402038B50B6905460C46DC
:10158000DBB118B183690BB9FFF764FB0C4B9C42CC
:1015900001D16C6808E00B4B9C4201D1AC6803E0C0
:1015A000094B9C4208BFEC68B4F90C302BB12146C2
:1015B0002846BDE83840FFF757BF002038BD00BFC0
:1015C000CC200000EC2000000C21000038B5074CB6
:1015D000054608461146002222601A46FFF730F8F9
:1015E000431C02D1236803B12B6038BD9403002053
:1015F00070B50E46B1F90E10002990B014461D4684
:1016000006DA00232B60B3891A060ED540230EE0BC
:1016100001AA00F099FB0028F3DB029A02F4704261
:10162000A2F500535A425A412A604FF480630020C9
:10163000236010B070BD00008B8973B59E0705460E
:101640000C4610D401AB6A46FFF7D2FF009906465C
:101650002846FFF719FC68B9B4F90C309A0522D472
:1016600043F00203A38104F14703236023610123B4
:10167000636118E00D4BAB62A389206043F08003E7
:10168000A381009B6361019B20614BB1B4F90E10F3
:10169000284600F06BFB18B1A38943F00103A38136
:1016A000A0893043A08102B070BD00BFD50B0000FF
:1016B0007047704738B50546002946D051F8043CBC
:1016C0000C1F002BB8BFE418FFF7F2FF1F4A136886
:1016D000114613B96360146032E0A3420ED9226848
:1016E000A018834204BF18685B68636004BF1218C7
:1016F00022600C6024E0A24203D813465A68002AF4
:10170000F9D118681918A1420BD121680144581861
:101710008242196014D1106852685A6001441960FD
:101720000EE002D90C232B600AE021686018824287
:1017300004BF10685268626004BF091821605C60D1
:101740002846BDE83840FFF7B4BF38BD90030020FD
:101750002DE9F0478E689E4282460C469146984697
:101760003ED88A8912F4906F3AD0256809696F1AB9
:101770006569022305EB450595FBF3F57B1C4344A6
:101780009D4238BF1D4653050FD52946FFF77CFB08
:10179000064698B13A46216900F04AFBA38923F432
:1017A000906343F08003A38113E02A4600F066FBB8
:1017B000064670B921695046FFF77CFF0C23CAF832
:1017C0000030A38943F04003A3814FF0FF30BDE810
:1017D000F087266165613E44ED1B2660A5604646A4
:1017E000464528BF464632464946206800F02BFB56
:1017F000A3689B1BA36023681E4426600020BDE8ED
:10180000F08700002DE9F04F9DB0804603938B894F
:101810001C060D4616460DD50B695BB94021FFF736
:1018200033FB2860286118B90C23C8F80030CDE0DC
:1018300040236B610023099320238DF82930DFF8C2
:101840009CB130238DF82A3037463C4614F8013BD2
:101850001BB9B7EB060910D003E0252BF9D02746BA
:10186000F3E74B46324629464046FFF771FF013009
:1018700000F0A780099B4B4409933B78002B00F0B4
:10188000A08000234FF0FF32049307930592069344
:101890008DF853301A930126052221784E4800F026
:1018A00077FA671C049B38B14B4A801A06FA00F09D
:1018B000184304903C46EFE7D90644BF20228DF838
:1018C00053201A0744BF2B228DF8532022782A2A4E
:1018D00003D0079A00210A200BE0039A111D126819
:1018E0000391002A10DA524243F00200079204905A
:1018F0000BE0274601343B78303B092B03D800FB33
:1019000002320121F5E701B107923B782E2B1ED15F
:101910007B782A2B0AD1039B1A1D1B680392002B8C
:10192000B8BF4FF0FF330237059310E00023059353
:10193000781C19460A24074601303A78303A092AB9
:1019400003D804FB01210123F5E703B1059103222C
:101950003978224800F01CFA40B14023CBEB00005C
:1019600003FA00F0049B18430490013739781C48AF
:101970008DF8281006227E1C00F00AFA88B1194B57
:1019800033B9039B073323F007030833039314E0B1
:1019900003AB00932A46144B04A94046AFF30080E2
:1019A00007E003AB00932A460F4B04A9404600F022
:1019B00093F8B0F1FF3F824603D0099B534409934B
:1019C00042E7AB895B0601D4099801E04FF0FF3094
:1019D0001DB0BDE8F08F00BF3B2200004122000097
:1019E0004522000000000000511700002DE9F047DB
:1019F00091461F460A698B68DDF820809342B8BF84
:101A00001346C9F8003091F8432006460C4612B13F
:101A10000133C9F800302368990642BFD9F8003075
:101A20000233C9F80030256815F0060510D104F11D
:101A3000190A07E00123524639463046C0470130B3
:101A40001AD00135E368D9F800209B1A9D42F1DBDA
:101A500094F843302268003318BF012392060FD553
:101A6000E1185A1C302081F84300224494F84510B4
:101A700082F84310023303E04FF0FF30BDE8F087F7
:101A800004F1430239463046C0470130F4D02268A1
:101A9000D9F80050E36802F00602042A08BF5D1B73
:101AA0002269A3680CBF25EAE57500259342C4BFEF
:101AB0009B1AED184FF000091A344D4509D0012347
:101AC000224639463046C0470130D5D009F10109D8
:101AD000F3E70020BDE8F0872DE9F04317460A7EC2
:101AE00085B06E2A984606460C460C9B01F1430EC3
:101AF00000F0AE8011D8632A22D009D8002A00F065
:101B0000BB80582A40F0CA8081F84520834955E0BF
:101B1000642A1ED0692A1CD0C0E0732A00F0B0806D
:101B200009D86F2A2ED0702A40F0B8800A6842F097
:101B300020020A603EE0752A24D0782A3AD0ADE02F
:101B40001A6801F14205111D1960136884F84230CA
:101B5000A8E021681A6811F0800F02D0111D1960E9
:101B600008E011F0400F02F10401196002D0B2F94F
:101B7000003000E01368002B3CDA2D225B4284F831
:101B8000432037E021681A6811F0800F02D0111D40
:101B9000196007E011F0400F02F10401196001D053
:101BA000138800E01368227E5C496F2A14BF0A2262
:101BB00008221BE078225A4984F8452022681868D8
:101BC00012F0800F00F104051D6003D1550601D508
:101BD000038800E00368D00744BF42F0200222607F
:101BE0001BB9226822F0200222601022002084F813
:101BF000430001E049490A226568A560002D08DB21
:101C0000206820F0040020602BB9002D7DD175469E
:101C10000CE0002B79D07546B3FBF2F002FB1033D9
:101C2000CB5C05F8013D03460028F5D1082A0BD10D
:101C30002368DA0708D5236962689A42DEBF302339
:101C400005F8013C05F1FF35C5EB0E0323612EE0DD
:101C500008681A68496910F0800F03D0101D1860D9
:101C6000136808E010F0400F02F1040018601368D8
:101C700001D0198000E0196000232361754616E049
:101C80001A68111D1960156862680021284600F065
:101C90007FF808B1401B6060636804E004F142050E
:101CA00084F8422001232361002384F84330CDF8D7
:101CB00000803B4603AA21463046FFF797FE0130DD
:101CC00002D14FF0FF3026E023692A4639463046DC
:101CD000C0470130F5D023689B0710D5002504F1DB
:101CE000190907E001234A4639463046C04701300A
:101CF000E7D00135E368039A9B1A9D42F2DBE06866
:101D0000039B9842B8BF184605E00B7884F8423030
:101D100004F142058AE705B0BDE8F0834C220000DB
:101D20005D22000038B5074C0546084611460022E2
:101D300022601A46FEF70AFC431C02D1236803B155
:101D40002B6038BD9403002038B5074C00230546AE
:101D5000084611462360FEF705FD431C02D12368A7
:101D600003B12B6038BD00BF9403002038B5064C8A
:101D70000023054608462360FEF702FD431C02D1FE
:101D8000236803B12B6038BD9403002000000000DD
:101D900001F0FF01102A2BDB10F0070F08D010F81C
:101DA000013B013A8B422DD010F0070F42B3F6D120
:101DB000F0B441EA012141EA014122F007047FF039
:101DC00000070023F0E80256083C85EA010586EA90
:101DD000010685FA47F5A3FA87F586FA47F6A5FACC
:101DE00087F68EB9EED1F0BC01F0FF0102F00702D8
:101DF00032B110F8013B013A83EA010313B1F8D183
:101E00000020704701387047002D06BF3546033863
:101E1000073815F0010F07D1013015F4807F02BF9C
:101E2000013015F4C03F0130F0BC0138704700BFED
:101E300010B5431E0A44914204D011F8014B03F837
:101E4000014FF8E710BD884210B501EB020301D83D
:101E5000421E0BE09842FBD28118D21AD34204D022
:101E600013F8014D01F8014DF8E710BD994204D077
:101E700011F8014B02F8014FF8E710BDF8B507461D
:101E800015460E4621B91146BDE8F840FEF7FCBFE5
:101E90001AB9FFF70FFC2846F8BD00F015F8854287
:101EA0000ED929463846FEF7EFFF044650B13146B9
:101EB0002A46FFF7BDFF31463846FFF7FBFB01E03E
:101EC0003046F8BD2046F8BD51F8040C0028BEBFCE
:101ED000091851F8043CC018043870473A7474006B
:101EE0002F746D70000000006D61696E286172676B
:101EF000633D25642C20617267763D5B0000000025
:101F00002C20000022257322000000005D293B0ADE
:101F100000000000537461636B206672616D653A66
:101F20000A000000205230203D2020253038580A79
:101F300000000000205231203D2020253038580A72
:101F400000000000205232203D2020253038580A61
:101F500000000000205233203D2020253038580A50
:101F60000000000020523132203D20253038580A30
:101F700000000000204C52203D2020253038580A17
:101F800000000000205043203D2020253038580A12
:101F90000000000020505352203D20253038580AC0
:101FA000000000004653522F4641523A0A000000FA
:101FB0002043465352203D2020253038580A000047
:101FC0002048465352203D2020253038580A000032
:101FD0002044465352203D2020253038580A000026
:101FE0002041465352203D2020253038580A000019
:101FF000204D4D464152203D20253038580A0000E2
:102000002042464152203D2020253038580A000009
:102010004D6973630A000000204C522F4558435FFE
:1020200052455455524E3D20253038580A00000084
:102030005B486172644661756C745D0A0000000063
:102040005B4275734661756C745D0A005B55736124
:1020500067654661756C745D0A00000048656C6CCC
:102060006F2041524D20576F726C642100000000B8
:102070005374616E64617264206F7574707574203E
:102080006D6573736167652E000000005374616EA7
:1020900064617264206572726F72206D6573736122
:1020A00067652E0A0000000053797374656D206324
:1020B0006C6F636B3A20257520487A0A0000000097
:1020C0005365636F6E642025640A00000000000001
:1020D0000000000000000000000000000000000000
:1020E00000000000000000000000000000000000F0
:1020F00000000000000000000000000000000000E0
:1021000000000000000000000000000000000000CF
:1021100000000000000000000000000000000000BF
:102120000000000000000000000000000800002087
:102130004300504F534958002E00002020202020FB
:102140002020202028282828282020202020202067
:102150002020202020202020202020881010101057
:1021600010101010101010101010100404040404AB
:1021700004040404041010101010101041414141D7
:1021800041410101010101010101010101010101BF
:1021900001010101010110101010101042424242D1
:1021A000424202020202020202020202020202028F
:1021B00002020202020210101010200000000000B3
:1021C000000000000000000000000000000000000F
:1021D00000000000000000000000000000000000FF
:1021E00000000000000000000000000000000000EF
:1021F00000000000000000000000000000000000DF
:1022000000000000000000000000000000000000CE
:1022100000000000000000000000000000000000BE
:1022200000000000000000000000000000000000AE
:102230000000000000000000000000232D302B20D3
:1022400000686C4C006566674546470030313233A4
:10225000343536373839414243444546003031320F
:0E2260003334353637383961626364656600A1
:102270007856341200127A0000000000CC200000D2
:10228000EC2000000C210000000000000000000015
:10229000000000000000000000000000000000003E
:1022A000000000000000000000000000000000002E
:1022B000000000000000000000000000000000001E
:1022C000000000000000000000000000000000000E
:1022D0000000000000000000080000204300000093
:1022E00000000000000000000000000000000000EE
:1022F000000000000000000000000000430000009B
:1023000000000000000000000000000000000000CD
:10231000000000000000000000000000430000007A
:1023200000000000000000000000000000000000AD
:10233000000000000000000000000000430000005A
:10234000000000000000000000000000000000008D
:10235000000000000000000000000000430000003A
:10236000000000000000000000000000000000006D
:10237000000000000000000000000000430000001A
:10238000000000000000000000000000000000004D
:1023900000000000000000000000000043000000FA
:1023A000000000000000000000000000000000002D
:1023B0000000000000000000000000002D130000DD
:1023C000550E0000000000003A21000038210000F6
:1023D0004022000040220000402200004022000075
:1023E0004022000040220000402200004022000065
:1023F00040220000FFFFFFFFFFFFFFFFFFFFFFFF87
:10240000FFFF000001004153434949000000000064
:1024100000000000000000000000000000000000BC
:102420000000000000004153434949000000000043
:10243000000000000000000000000000000000009C
:0C244000000000000000000032547698FC
:0400000300000045B4
:00000001FF
